{
  "_format": "hh-sol-artifact-1",
  "contractName": "Ethermax",
  "sourceName": "src/contracts/Ethermax.sol",
  "abi": [
    {
      "inputs": [
        {
          "internalType": "address",
          "name": "_lpAddress",
          "type": "address"
        }
      ],
      "stateMutability": "nonpayable",
      "type": "constructor"
    },
    {
      "inputs": [
        {
          "internalType": "address",
          "name": "spender",
          "type": "address"
        },
        {
          "internalType": "uint256",
          "name": "allowance",
          "type": "uint256"
        },
        {
          "internalType": "uint256",
          "name": "needed",
          "type": "uint256"
        }
      ],
      "name": "ERC20InsufficientAllowance",
      "type": "error"
    },
    {
      "inputs": [
        {
          "internalType": "address",
          "name": "sender",
          "type": "address"
        },
        {
          "internalType": "uint256",
          "name": "balance",
          "type": "uint256"
        },
        {
          "internalType": "uint256",
          "name": "needed",
          "type": "uint256"
        }
      ],
      "name": "ERC20InsufficientBalance",
      "type": "error"
    },
    {
      "inputs": [
        {
          "internalType": "address",
          "name": "approver",
          "type": "address"
        }
      ],
      "name": "ERC20InvalidApprover",
      "type": "error"
    },
    {
      "inputs": [
        {
          "internalType": "address",
          "name": "receiver",
          "type": "address"
        }
      ],
      "name": "ERC20InvalidReceiver",
      "type": "error"
    },
    {
      "inputs": [
        {
          "internalType": "address",
          "name": "sender",
          "type": "address"
        }
      ],
      "name": "ERC20InvalidSender",
      "type": "error"
    },
    {
      "inputs": [
        {
          "internalType": "address",
          "name": "spender",
          "type": "address"
        }
      ],
      "name": "ERC20InvalidSpender",
      "type": "error"
    },
    {
      "inputs": [],
      "name": "NotMinter",
      "type": "error"
    },
    {
      "inputs": [
        {
          "internalType": "address",
          "name": "owner",
          "type": "address"
        }
      ],
      "name": "OwnableInvalidOwner",
      "type": "error"
    },
    {
      "inputs": [
        {
          "internalType": "address",
          "name": "account",
          "type": "address"
        }
      ],
      "name": "OwnableUnauthorizedAccount",
      "type": "error"
    },
    {
      "anonymous": false,
      "inputs": [
        {
          "indexed": true,
          "internalType": "address",
          "name": "owner",
          "type": "address"
        },
        {
          "indexed": true,
          "internalType": "address",
          "name": "spender",
          "type": "address"
        },
        {
          "indexed": false,
          "internalType": "uint256",
          "name": "value",
          "type": "uint256"
        }
      ],
      "name": "Approval",
      "type": "event"
    },
    {
      "anonymous": false,
      "inputs": [
        {
          "indexed": true,
          "internalType": "address",
          "name": "previousOwner",
          "type": "address"
        },
        {
          "indexed": true,
          "internalType": "address",
          "name": "newOwner",
          "type": "address"
        }
      ],
      "name": "OwnershipTransferred",
      "type": "event"
    },
    {
      "anonymous": false,
      "inputs": [
        {
          "indexed": true,
          "internalType": "address",
          "name": "from",
          "type": "address"
        },
        {
          "indexed": true,
          "internalType": "address",
          "name": "to",
          "type": "address"
        },
        {
          "indexed": false,
          "internalType": "uint256",
          "name": "value",
          "type": "uint256"
        }
      ],
      "name": "Transfer",
      "type": "event"
    },
    {
      "inputs": [],
      "name": "MAX_SUPPLY",
      "outputs": [
        {
          "internalType": "uint256",
          "name": "",
          "type": "uint256"
        }
      ],
      "stateMutability": "view",
      "type": "function"
    },
    {
      "inputs": [
        {
          "internalType": "address",
          "name": "_minter",
          "type": "address"
        }
      ],
      "name": "addMinter",
      "outputs": [],
      "stateMutability": "nonpayable",
      "type": "function"
    },
    {
      "inputs": [
        {
          "internalType": "address",
          "name": "owner",
          "type": "address"
        },
        {
          "internalType": "address",
          "name": "spender",
          "type": "address"
        }
      ],
      "name": "allowance",
      "outputs": [
        {
          "internalType": "uint256",
          "name": "",
          "type": "uint256"
        }
      ],
      "stateMutability": "view",
      "type": "function"
    },
    {
      "inputs": [],
      "name": "amtBurned",
      "outputs": [
        {
          "internalType": "uint256",
          "name": "",
          "type": "uint256"
        }
      ],
      "stateMutability": "view",
      "type": "function"
    },
    {
      "inputs": [
        {
          "internalType": "address",
          "name": "spender",
          "type": "address"
        },
        {
          "internalType": "uint256",
          "name": "value",
          "type": "uint256"
        }
      ],
      "name": "approve",
      "outputs": [
        {
          "internalType": "bool",
          "name": "",
          "type": "bool"
        }
      ],
      "stateMutability": "nonpayable",
      "type": "function"
    },
    {
      "inputs": [
        {
          "internalType": "address",
          "name": "",
          "type": "address"
        }
      ],
      "name": "authorizedMinters",
      "outputs": [
        {
          "internalType": "bool",
          "name": "",
          "type": "bool"
        }
      ],
      "stateMutability": "view",
      "type": "function"
    },
    {
      "inputs": [
        {
          "internalType": "address",
          "name": "account",
          "type": "address"
        }
      ],
      "name": "balanceOf",
      "outputs": [
        {
          "internalType": "uint256",
          "name": "",
          "type": "uint256"
        }
      ],
      "stateMutability": "view",
      "type": "function"
    },
    {
      "inputs": [
        {
          "internalType": "uint256",
          "name": "value",
          "type": "uint256"
        }
      ],
      "name": "burn",
      "outputs": [],
      "stateMutability": "nonpayable",
      "type": "function"
    },
    {
      "inputs": [],
      "name": "decimals",
      "outputs": [
        {
          "internalType": "uint8",
          "name": "",
          "type": "uint8"
        }
      ],
      "stateMutability": "view",
      "type": "function"
    },
    {
      "inputs": [
        {
          "internalType": "address",
          "name": "to",
          "type": "address"
        },
        {
          "internalType": "uint256",
          "name": "amount",
          "type": "uint256"
        }
      ],
      "name": "mint",
      "outputs": [],
      "stateMutability": "nonpayable",
      "type": "function"
    },
    {
      "inputs": [],
      "name": "minter",
      "outputs": [
        {
          "internalType": "address",
          "name": "",
          "type": "address"
        }
      ],
      "stateMutability": "view",
      "type": "function"
    },
    {
      "inputs": [],
      "name": "name",
      "outputs": [
        {
          "internalType": "string",
          "name": "",
          "type": "string"
        }
      ],
      "stateMutability": "view",
      "type": "function"
    },
    {
      "inputs": [],
      "name": "owner",
      "outputs": [
        {
          "internalType": "address",
          "name": "",
          "type": "address"
        }
      ],
      "stateMutability": "view",
      "type": "function"
    },
    {
      "inputs": [
        {
          "internalType": "address",
          "name": "_minter",
          "type": "address"
        }
      ],
      "name": "removeMinter",
      "outputs": [],
      "stateMutability": "nonpayable",
      "type": "function"
    },
    {
      "inputs": [],
      "name": "renounceOwnership",
      "outputs": [],
      "stateMutability": "nonpayable",
      "type": "function"
    },
    {
      "inputs": [],
      "name": "symbol",
      "outputs": [
        {
          "internalType": "string",
          "name": "",
          "type": "string"
        }
      ],
      "stateMutability": "view",
      "type": "function"
    },
    {
      "inputs": [],
      "name": "totalSupply",
      "outputs": [
        {
          "internalType": "uint256",
          "name": "",
          "type": "uint256"
        }
      ],
      "stateMutability": "view",
      "type": "function"
    },
    {
      "inputs": [
        {
          "internalType": "address",
          "name": "to",
          "type": "address"
        },
        {
          "internalType": "uint256",
          "name": "value",
          "type": "uint256"
        }
      ],
      "name": "transfer",
      "outputs": [
        {
          "internalType": "bool",
          "name": "",
          "type": "bool"
        }
      ],
      "stateMutability": "nonpayable",
      "type": "function"
    },
    {
      "inputs": [
        {
          "internalType": "address",
          "name": "from",
          "type": "address"
        },
        {
          "internalType": "address",
          "name": "to",
          "type": "address"
        },
        {
          "internalType": "uint256",
          "name": "value",
          "type": "uint256"
        }
      ],
      "name": "transferFrom",
      "outputs": [
        {
          "internalType": "bool",
          "name": "",
          "type": "bool"
        }
      ],
      "stateMutability": "nonpayable",
      "type": "function"
    },
    {
      "inputs": [
        {
          "internalType": "address",
          "name": "newOwner",
          "type": "address"
        }
      ],
      "name": "transferOwnership",
      "outputs": [],
      "stateMutability": "nonpayable",
      "type": "function"
    }
  ],
  "bytecode": "0x60806040523480156200001157600080fd5b5060405162000fac38038062000fac8339810160408190526200003491620002b3565b336040518060400160405280600881526020016708ae8d0cae4dac2f60c31b8152506040518060400160405280600481526020016309a82b0b60e31b81525081600390816200008491906200038a565b5060046200009382826200038a565b5050506001600160a01b038116620000c657604051631e4fbdf760e01b8152600060048201526024015b60405180910390fd5b620000d181620000f0565b50620000e9816a03796274caf64c7100000062000142565b506200047e565b600580546001600160a01b038381166001600160a01b0319831681179093556040519116919082907f8be0079c531659141344cd1fd0a4f28419497f9722a3daafe3b4186f6b6457e090600090a35050565b6001600160a01b0382166200016e5760405163ec442f0560e01b815260006004820152602401620000bd565b6200017c6000838362000180565b5050565b6001600160a01b038316620001af578060026000828254620001a3919062000456565b90915550620002239050565b6001600160a01b03831660009081526020819052604090205481811015620002045760405163391434e360e21b81526001600160a01b03851660048201526024810182905260448101839052606401620000bd565b6001600160a01b03841660009081526020819052604090209082900390555b6001600160a01b038216620002415760028054829003905562000260565b6001600160a01b03821660009081526020819052604090208054820190555b816001600160a01b0316836001600160a01b03167fddf252ad1be2c89b69c2b068fc378daa952ba7f163c4a11628f55a4df523b3ef83604051620002a691815260200190565b60405180910390a3505050565b600060208284031215620002c657600080fd5b81516001600160a01b0381168114620002de57600080fd5b9392505050565b634e487b7160e01b600052604160045260246000fd5b600181811c908216806200031057607f821691505b6020821081036200033157634e487b7160e01b600052602260045260246000fd5b50919050565b601f8211156200038557600081815260208120601f850160051c81016020861015620003605750805b601f850160051c820191505b8181101562000381578281556001016200036c565b5050505b505050565b81516001600160401b03811115620003a657620003a6620002e5565b620003be81620003b78454620002fb565b8462000337565b602080601f831160018114620003f65760008415620003dd5750858301515b600019600386901b1c1916600185901b17855562000381565b600085815260208120601f198616915b82811015620004275788860151825594840194600190910190840162000406565b5085821015620004465787850151600019600388901b60f8161c191681555b5050505050600190811b01905550565b808201808211156200047857634e487b7160e01b600052601160045260246000fd5b92915050565b610b1e806200048e6000396000f3fe608060405234801561001057600080fd5b506004361061012c5760003560e01c806342966c68116100ad578063983b2d5611610071578063983b2d5614610276578063a9059cbb14610289578063aa2fe91b1461029c578063dd62ed3e146102bf578063f2fde38b146102f857600080fd5b806342966c681461021957806370a082311461022c578063715018a6146102555780638da5cb5b1461025d57806395d89b411461026e57600080fd5b806323b872dd116100f457806323b872dd146101bc5780633092afd5146101cf578063313ce567146101e457806332cb6b0c146101f357806340c10f191461020657600080fd5b806306fdde0314610131578063075461721461014f578063095ea7b31461017a5780630a7d242c1461019d57806318160ddd146101b4575b600080fd5b61013961030b565b6040516101469190610934565b60405180910390f35b600654610162906001600160a01b031681565b6040516001600160a01b039091168152602001610146565b61018d61018836600461099e565b61039d565b6040519015158152602001610146565b6101a660075481565b604051908152602001610146565b6002546101a6565b61018d6101ca3660046109c8565b6103b7565b6101e26101dd366004610a04565b6103db565b005b60405160128152602001610146565b6101a66b015b6a759f4835dc2400000081565b6101e261021436600461099e565b610404565b6101e2610227366004610a26565b610499565b6101a661023a366004610a04565b6001600160a01b031660009081526020819052604090205490565b6101e26104be565b6005546001600160a01b0316610162565b6101396104d2565b6101e2610284366004610a04565b6104e1565b61018d61029736600461099e565b61050d565b61018d6102aa366004610a04565b60086020526000908152604090205460ff1681565b6101a66102cd366004610a3f565b6001600160a01b03918216600090815260016020908152604080832093909416825291909152205490565b6101e2610306366004610a04565b61051b565b60606003805461031a90610a72565b80601f016020809104026020016040519081016040528092919081815260200182805461034690610a72565b80156103935780601f1061036857610100808354040283529160200191610393565b820191906000526020600020905b81548152906001019060200180831161037657829003601f168201915b5050505050905090565b6000336103ab81858561055b565b60019150505b92915050565b6000336103c5858285610568565b6103d08585856105e7565b506001949350505050565b6103e3610646565b6001600160a01b03166000908152600860205260409020805460ff19169055565b3360009081526008602052604090205460ff1661043457604051633e34a41b60e21b815260040160405180910390fd5b600060075461044260025490565b61044c9190610ac2565b90506b015b6a759f4835dc240000006104658383610ac2565b111561048457610481816b015b6a759f4835dc24000000610ad5565b91505b8115610494576104948383610673565b505050565b80600760008282546104ab9190610ac2565b909155506104bb905033826106ad565b50565b6104c6610646565b6104d060006106e3565b565b60606004805461031a90610a72565b6104e9610646565b6001600160a01b03166000908152600860205260409020805460ff19166001179055565b6000336103ab8185856105e7565b610523610646565b6001600160a01b03811661055257604051631e4fbdf760e01b8152600060048201526024015b60405180910390fd5b6104bb816106e3565b6104948383836001610735565b6001600160a01b038381166000908152600160209081526040808320938616835292905220546000198110156105e157818110156105d257604051637dc7a0d960e11b81526001600160a01b03841660048201526024810182905260448101839052606401610549565b6105e184848484036000610735565b50505050565b6001600160a01b03831661061157604051634b637e8f60e11b815260006004820152602401610549565b6001600160a01b03821661063b5760405163ec442f0560e01b815260006004820152602401610549565b61049483838361080a565b6005546001600160a01b031633146104d05760405163118cdaa760e01b8152336004820152602401610549565b6001600160a01b03821661069d5760405163ec442f0560e01b815260006004820152602401610549565b6106a96000838361080a565b5050565b6001600160a01b0382166106d757604051634b637e8f60e11b815260006004820152602401610549565b6106a98260008361080a565b600580546001600160a01b038381166001600160a01b0319831681179093556040519116919082907f8be0079c531659141344cd1fd0a4f28419497f9722a3daafe3b4186f6b6457e090600090a35050565b6001600160a01b03841661075f5760405163e602df0560e01b815260006004820152602401610549565b6001600160a01b03831661078957604051634a1406b160e11b815260006004820152602401610549565b6001600160a01b03808516600090815260016020908152604080832093871683529290522082905580156105e157826001600160a01b0316846001600160a01b03167f8c5be1e5ebec7d5bd14f71427d1e84f3dd0314c0f7b2291e5b200ac8c7c3b925846040516107fc91815260200190565b60405180910390a350505050565b6001600160a01b03831661083557806002600082825461082a9190610ac2565b909155506108a79050565b6001600160a01b038316600090815260208190526040902054818110156108885760405163391434e360e21b81526001600160a01b03851660048201526024810182905260448101839052606401610549565b6001600160a01b03841660009081526020819052604090209082900390555b6001600160a01b0382166108c3576002805482900390556108e2565b6001600160a01b03821660009081526020819052604090208054820190555b816001600160a01b0316836001600160a01b03167fddf252ad1be2c89b69c2b068fc378daa952ba7f163c4a11628f55a4df523b3ef8360405161092791815260200190565b60405180910390a3505050565b600060208083528351808285015260005b8181101561096157858101830151858201604001528201610945565b506000604082860101526040601f19601f8301168501019250505092915050565b80356001600160a01b038116811461099957600080fd5b919050565b600080604083850312156109b157600080fd5b6109ba83610982565b946020939093013593505050565b6000806000606084860312156109dd57600080fd5b6109e684610982565b92506109f460208501610982565b9150604084013590509250925092565b600060208284031215610a1657600080fd5b610a1f82610982565b9392505050565b600060208284031215610a3857600080fd5b5035919050565b60008060408385031215610a5257600080fd5b610a5b83610982565b9150610a6960208401610982565b90509250929050565b600181811c90821680610a8657607f821691505b602082108103610aa657634e487b7160e01b600052602260045260246000fd5b50919050565b634e487b7160e01b600052601160045260246000fd5b808201808211156103b1576103b1610aac565b818103818111156103b1576103b1610aac56fea264697066735822122088d1788f07f741a6689aea182cc6c76ddb48aa9ad6da8ef00593efdcc136718264736f6c63430008140033",
  "linkReferences": {},
  "deployedLinkReferences": {}
}