{
  "_format": "hh-sol-artifact-1",
  "contractName": "EthermaxMining",
  "sourceName": "src/contracts/EthermaxMining.sol",
  "abi": [
    {
      "inputs": [],
      "stateMutability": "nonpayable",
      "type": "constructor"
    },
    {
      "inputs": [],
      "name": "AlreadyAtMaxFacility",
      "type": "error"
    },
    {
      "inputs": [],
      "name": "AlreadyPurchasedInitialFactory",
      "type": "error"
    },
    {
      "inputs": [],
      "name": "CantBuyNewFacilityYet",
      "type": "error"
    },
    {
      "inputs": [],
      "name": "CantModifyStarterFacility",
      "type": "error"
    },
    {
      "inputs": [],
      "name": "CantModifyStarterMiner",
      "type": "error"
    },
    {
      "inputs": [],
      "name": "FacilityDimensionsInvalid",
      "type": "error"
    },
    {
      "inputs": [],
      "name": "FacilityInadequatePowerOutput",
      "type": "error"
    },
    {
      "inputs": [],
      "name": "GreatDepression",
      "type": "error"
    },
    {
      "inputs": [],
      "name": "IncorrectValue",
      "type": "error"
    },
    {
      "inputs": [],
      "name": "IndexOutOfBounds",
      "type": "error"
    },
    {
      "inputs": [],
      "name": "InvalidFacilityIndex",
      "type": "error"
    },
    {
      "inputs": [],
      "name": "InvalidFee",
      "type": "error"
    },
    {
      "inputs": [],
      "name": "InvalidMinerCoordinates",
      "type": "error"
    },
    {
      "inputs": [],
      "name": "InvalidMinerIndex",
      "type": "error"
    },
    {
      "inputs": [],
      "name": "InvalidPowerOutput",
      "type": "error"
    },
    {
      "inputs": [],
      "name": "InvalidReferrer",
      "type": "error"
    },
    {
      "inputs": [],
      "name": "MinerNotInProduction",
      "type": "error"
    },
    {
      "inputs": [],
      "name": "MiningHasntStarted",
      "type": "error"
    },
    {
      "inputs": [],
      "name": "NeedToInitializeFacility",
      "type": "error"
    },
    {
      "inputs": [],
      "name": "NewFacilityNotInProduction",
      "type": "error"
    },
    {
      "inputs": [],
      "name": "NoRewardsPending",
      "type": "error"
    },
    {
      "inputs": [],
      "name": "NonExistentFacility",
      "type": "error"
    },
    {
      "inputs": [],
      "name": "NonExistentMiner",
      "type": "error"
    },
    {
      "inputs": [
        {
          "internalType": "address",
          "name": "owner",
          "type": "address"
        }
      ],
      "name": "OwnableInvalidOwner",
      "type": "error"
    },
    {
      "inputs": [
        {
          "internalType": "address",
          "name": "account",
          "type": "address"
        }
      ],
      "name": "OwnableUnauthorizedAccount",
      "type": "error"
    },
    {
      "inputs": [],
      "name": "PlayerDoesNotOwnMiner",
      "type": "error"
    },
    {
      "inputs": [],
      "name": "StarterMinerAlreadyAcquired",
      "type": "error"
    },
    {
      "inputs": [],
      "name": "TooPoor",
      "type": "error"
    },
    {
      "inputs": [],
      "name": "WithdrawFailed",
      "type": "error"
    },
    {
      "anonymous": false,
      "inputs": [
        {
          "indexed": true,
          "internalType": "address",
          "name": "user",
          "type": "address"
        },
        {
          "indexed": false,
          "internalType": "uint256",
          "name": "facilityIndex",
          "type": "uint256"
        },
        {
          "indexed": false,
          "internalType": "uint256",
          "name": "cost",
          "type": "uint256"
        }
      ],
      "name": "FacilityBought",
      "type": "event"
    },
    {
      "anonymous": false,
      "inputs": [
        {
          "indexed": true,
          "internalType": "uint256",
          "name": "facilityId",
          "type": "uint256"
        },
        {
          "indexed": false,
          "internalType": "uint256",
          "name": "newCost",
          "type": "uint256"
        }
      ],
      "name": "FacilityCostChanged",
      "type": "event"
    },
    {
      "anonymous": false,
      "inputs": [
        {
          "indexed": true,
          "internalType": "uint256",
          "name": "facilityId",
          "type": "uint256"
        },
        {
          "indexed": false,
          "internalType": "bool",
          "name": "inProduction",
          "type": "bool"
        }
      ],
      "name": "FacilityProductionToggled",
      "type": "event"
    },
    {
      "anonymous": false,
      "inputs": [
        {
          "indexed": true,
          "internalType": "address",
          "name": "user",
          "type": "address"
        }
      ],
      "name": "InitialFacilityPurchased",
      "type": "event"
    },
    {
      "anonymous": false,
      "inputs": [
        {
          "indexed": true,
          "internalType": "address",
          "name": "user",
          "type": "address"
        },
        {
          "indexed": false,
          "internalType": "uint256",
          "name": "minerIndex",
          "type": "uint256"
        },
        {
          "indexed": false,
          "internalType": "uint256",
          "name": "cost",
          "type": "uint256"
        },
        {
          "indexed": false,
          "internalType": "uint256",
          "name": "minerId",
          "type": "uint256"
        },
        {
          "indexed": false,
          "internalType": "uint256",
          "name": "x",
          "type": "uint256"
        },
        {
          "indexed": false,
          "internalType": "uint256",
          "name": "y",
          "type": "uint256"
        }
      ],
      "name": "MinerBought",
      "type": "event"
    },
    {
      "anonymous": false,
      "inputs": [
        {
          "indexed": true,
          "internalType": "uint256",
          "name": "minerId",
          "type": "uint256"
        },
        {
          "indexed": false,
          "internalType": "uint256",
          "name": "newCost",
          "type": "uint256"
        }
      ],
      "name": "MinerCostChanged",
      "type": "event"
    },
    {
      "anonymous": false,
      "inputs": [
        {
          "indexed": true,
          "internalType": "uint256",
          "name": "minerId",
          "type": "uint256"
        },
        {
          "indexed": false,
          "internalType": "bool",
          "name": "inProduction",
          "type": "bool"
        }
      ],
      "name": "MinerProductionToggled",
      "type": "event"
    },
    {
      "anonymous": false,
      "inputs": [
        {
          "indexed": true,
          "internalType": "uint256",
          "name": "minerId",
          "type": "uint256"
        },
        {
          "indexed": false,
          "internalType": "uint256",
          "name": "price",
          "type": "uint256"
        }
      ],
      "name": "MinerSecondaryMarketAdded",
      "type": "event"
    },
    {
      "anonymous": false,
      "inputs": [
        {
          "indexed": true,
          "internalType": "address",
          "name": "user",
          "type": "address"
        },
        {
          "indexed": false,
          "internalType": "uint256",
          "name": "minerIndex",
          "type": "uint256"
        },
        {
          "indexed": false,
          "internalType": "uint256",
          "name": "price",
          "type": "uint256"
        },
        {
          "indexed": false,
          "internalType": "uint256",
          "name": "minerId",
          "type": "uint256"
        },
        {
          "indexed": false,
          "internalType": "uint256",
          "name": "x",
          "type": "uint256"
        },
        {
          "indexed": false,
          "internalType": "uint256",
          "name": "y",
          "type": "uint256"
        }
      ],
      "name": "MinerSold",
      "type": "event"
    },
    {
      "anonymous": false,
      "inputs": [
        {
          "indexed": false,
          "internalType": "uint256",
          "name": "startBlock",
          "type": "uint256"
        }
      ],
      "name": "MiningStarted",
      "type": "event"
    },
    {
      "anonymous": false,
      "inputs": [
        {
          "indexed": true,
          "internalType": "uint256",
          "name": "facilityId",
          "type": "uint256"
        },
        {
          "indexed": false,
          "internalType": "uint256",
          "name": "totalPowerOutput",
          "type": "uint256"
        },
        {
          "indexed": false,
          "internalType": "uint256",
          "name": "cost",
          "type": "uint256"
        },
        {
          "indexed": false,
          "internalType": "bool",
          "name": "inProduction",
          "type": "bool"
        },
        {
          "indexed": false,
          "internalType": "uint256",
          "name": "x",
          "type": "uint256"
        },
        {
          "indexed": false,
          "internalType": "uint256",
          "name": "y",
          "type": "uint256"
        }
      ],
      "name": "NewFacilityAdded",
      "type": "event"
    },
    {
      "anonymous": false,
      "inputs": [
        {
          "indexed": true,
          "internalType": "uint256",
          "name": "minerId",
          "type": "uint256"
        },
        {
          "indexed": false,
          "internalType": "uint256",
          "name": "hashrate",
          "type": "uint256"
        },
        {
          "indexed": false,
          "internalType": "uint256",
          "name": "powerConsumption",
          "type": "uint256"
        },
        {
          "indexed": false,
          "internalType": "uint256",
          "name": "cost",
          "type": "uint256"
        },
        {
          "indexed": false,
          "internalType": "bool",
          "name": "inProduction",
          "type": "bool"
        }
      ],
      "name": "NewMinerAdded",
      "type": "event"
    },
    {
      "anonymous": false,
      "inputs": [
        {
          "indexed": true,
          "internalType": "address",
          "name": "previousOwner",
          "type": "address"
        },
        {
          "indexed": true,
          "internalType": "address",
          "name": "newOwner",
          "type": "address"
        }
      ],
      "name": "OwnershipTransferred",
      "type": "event"
    },
    {
      "anonymous": false,
      "inputs": [
        {
          "indexed": true,
          "internalType": "address",
          "name": "user",
          "type": "address"
        },
        {
          "indexed": false,
          "internalType": "uint256",
          "name": "hashrate",
          "type": "uint256"
        },
        {
          "indexed": false,
          "internalType": "uint256",
          "name": "pendingRewards",
          "type": "uint256"
        }
      ],
      "name": "PlayerHashrateDecreased",
      "type": "event"
    },
    {
      "anonymous": false,
      "inputs": [
        {
          "indexed": true,
          "internalType": "address",
          "name": "user",
          "type": "address"
        },
        {
          "indexed": false,
          "internalType": "uint256",
          "name": "hashrate",
          "type": "uint256"
        },
        {
          "indexed": false,
          "internalType": "uint256",
          "name": "pendingRewards",
          "type": "uint256"
        }
      ],
      "name": "PlayerHashrateIncreased",
      "type": "event"
    },
    {
      "anonymous": false,
      "inputs": [
        {
          "indexed": true,
          "internalType": "address",
          "name": "user",
          "type": "address"
        },
        {
          "indexed": false,
          "internalType": "uint256",
          "name": "amount",
          "type": "uint256"
        }
      ],
      "name": "RewardsClaimed",
      "type": "event"
    },
    {
      "inputs": [],
      "name": "HALVING_INTERVAL",
      "outputs": [
        {
          "internalType": "uint256",
          "name": "",
          "type": "uint256"
        }
      ],
      "stateMutability": "view",
      "type": "function"
    },
    {
      "inputs": [],
      "name": "INITIAL_ETHERMAX_PER_BLOCK",
      "outputs": [
        {
          "internalType": "uint256",
          "name": "",
          "type": "uint256"
        }
      ],
      "stateMutability": "view",
      "type": "function"
    },
    {
      "inputs": [],
      "name": "REWARDS_PRECISION",
      "outputs": [
        {
          "internalType": "uint256",
          "name": "",
          "type": "uint256"
        }
      ],
      "stateMutability": "view",
      "type": "function"
    },
    {
      "inputs": [],
      "name": "STARTER_FACILITY_INDEX",
      "outputs": [
        {
          "internalType": "uint256",
          "name": "",
          "type": "uint256"
        }
      ],
      "stateMutability": "view",
      "type": "function"
    },
    {
      "inputs": [],
      "name": "STARTER_MINER_INDEX",
      "outputs": [
        {
          "internalType": "uint256",
          "name": "",
          "type": "uint256"
        }
      ],
      "stateMutability": "view",
      "type": "function"
    },
    {
      "inputs": [
        {
          "internalType": "address",
          "name": "",
          "type": "address"
        }
      ],
      "name": "acquiredStarterMiner",
      "outputs": [
        {
          "internalType": "bool",
          "name": "",
          "type": "bool"
        }
      ],
      "stateMutability": "view",
      "type": "function"
    },
    {
      "inputs": [
        {
          "internalType": "uint256",
          "name": "maxMiners",
          "type": "uint256"
        },
        {
          "internalType": "uint256",
          "name": "totalPowerOutput",
          "type": "uint256"
        },
        {
          "internalType": "uint256",
          "name": "cost",
          "type": "uint256"
        },
        {
          "internalType": "bool",
          "name": "inProduction",
          "type": "bool"
        },
        {
          "internalType": "uint256",
          "name": "x",
          "type": "uint256"
        },
        {
          "internalType": "uint256",
          "name": "y",
          "type": "uint256"
        }
      ],
      "name": "addFacility",
      "outputs": [],
      "stateMutability": "nonpayable",
      "type": "function"
    },
    {
      "inputs": [
        {
          "internalType": "uint256",
          "name": "hashrate",
          "type": "uint256"
        },
        {
          "internalType": "uint256",
          "name": "powerConsumption",
          "type": "uint256"
        },
        {
          "internalType": "uint256",
          "name": "cost",
          "type": "uint256"
        },
        {
          "internalType": "bool",
          "name": "inProduction",
          "type": "bool"
        }
      ],
      "name": "addMiner",
      "outputs": [],
      "stateMutability": "nonpayable",
      "type": "function"
    },
    {
      "inputs": [
        {
          "internalType": "uint256",
          "name": "minerIndex",
          "type": "uint256"
        },
        {
          "internalType": "uint256",
          "name": "price",
          "type": "uint256"
        }
      ],
      "name": "addSecondaryMarketForMiner",
      "outputs": [],
      "stateMutability": "nonpayable",
      "type": "function"
    },
    {
      "inputs": [],
      "name": "blocksUntilNextHalving",
      "outputs": [
        {
          "internalType": "uint256",
          "name": "",
          "type": "uint256"
        }
      ],
      "stateMutability": "view",
      "type": "function"
    },
    {
      "inputs": [],
      "name": "burnPct",
      "outputs": [
        {
          "internalType": "uint256",
          "name": "",
          "type": "uint256"
        }
      ],
      "stateMutability": "view",
      "type": "function"
    },
    {
      "inputs": [
        {
          "internalType": "uint256",
          "name": "minerIndex",
          "type": "uint256"
        },
        {
          "internalType": "uint256",
          "name": "x",
          "type": "uint256"
        },
        {
          "internalType": "uint256",
          "name": "y",
          "type": "uint256"
        }
      ],
      "name": "buyMiner",
      "outputs": [],
      "stateMutability": "nonpayable",
      "type": "function"
    },
    {
      "inputs": [],
      "name": "buyNewFacility",
      "outputs": [],
      "stateMutability": "nonpayable",
      "type": "function"
    },
    {
      "inputs": [
        {
          "internalType": "uint256",
          "name": "facilityIndex",
          "type": "uint256"
        },
        {
          "internalType": "uint256",
          "name": "newCost",
          "type": "uint256"
        }
      ],
      "name": "changeFacilityCost",
      "outputs": [],
      "stateMutability": "nonpayable",
      "type": "function"
    },
    {
      "inputs": [
        {
          "internalType": "uint256",
          "name": "minerIndex",
          "type": "uint256"
        },
        {
          "internalType": "uint256",
          "name": "newCost",
          "type": "uint256"
        }
      ],
      "name": "changeMinerCost",
      "outputs": [],
      "stateMutability": "nonpayable",
      "type": "function"
    },
    {
      "inputs": [],
      "name": "claimRewards",
      "outputs": [],
      "stateMutability": "nonpayable",
      "type": "function"
    },
    {
      "inputs": [],
      "name": "cooldown",
      "outputs": [
        {
          "internalType": "uint256",
          "name": "",
          "type": "uint256"
        }
      ],
      "stateMutability": "view",
      "type": "function"
    },
    {
      "inputs": [],
      "name": "cumulativeEthermaxPerHash",
      "outputs": [
        {
          "internalType": "uint256",
          "name": "",
          "type": "uint256"
        }
      ],
      "stateMutability": "view",
      "type": "function"
    },
    {
      "inputs": [],
      "name": "dekalitRektoshi",
      "outputs": [
        {
          "internalType": "address",
          "name": "",
          "type": "address"
        }
      ],
      "stateMutability": "view",
      "type": "function"
    },
    {
      "inputs": [],
      "name": "etherMax",
      "outputs": [
        {
          "internalType": "address",
          "name": "",
          "type": "address"
        }
      ],
      "stateMutability": "view",
      "type": "function"
    },
    {
      "inputs": [
        {
          "internalType": "uint256",
          "name": "",
          "type": "uint256"
        }
      ],
      "name": "facilities",
      "outputs": [
        {
          "internalType": "uint256",
          "name": "maxMiners",
          "type": "uint256"
        },
        {
          "internalType": "uint256",
          "name": "totalPowerOutput",
          "type": "uint256"
        },
        {
          "internalType": "uint256",
          "name": "cost",
          "type": "uint256"
        },
        {
          "internalType": "bool",
          "name": "inProduction",
          "type": "bool"
        },
        {
          "internalType": "uint256",
          "name": "x",
          "type": "uint256"
        },
        {
          "internalType": "uint256",
          "name": "y",
          "type": "uint256"
        }
      ],
      "stateMutability": "view",
      "type": "function"
    },
    {
      "inputs": [],
      "name": "facilityCount",
      "outputs": [
        {
          "internalType": "uint256",
          "name": "",
          "type": "uint256"
        }
      ],
      "stateMutability": "view",
      "type": "function"
    },
    {
      "inputs": [],
      "name": "facilityFeeRecipient",
      "outputs": [
        {
          "internalType": "address",
          "name": "",
          "type": "address"
        }
      ],
      "stateMutability": "view",
      "type": "function"
    },
    {
      "inputs": [
        {
          "internalType": "uint256",
          "name": "",
          "type": "uint256"
        }
      ],
      "name": "facilityFees",
      "outputs": [
        {
          "internalType": "uint256",
          "name": "",
          "type": "uint256"
        }
      ],
      "stateMutability": "view",
      "type": "function"
    },
    {
      "inputs": [],
      "name": "getEthermaxPerBlock",
      "outputs": [
        {
          "internalType": "uint256",
          "name": "",
          "type": "uint256"
        }
      ],
      "stateMutability": "view",
      "type": "function"
    },
    {
      "inputs": [
        {
          "internalType": "uint256",
          "name": "x",
          "type": "uint256"
        },
        {
          "internalType": "uint256",
          "name": "y",
          "type": "uint256"
        }
      ],
      "name": "getFreeStarterMiner",
      "outputs": [],
      "stateMutability": "nonpayable",
      "type": "function"
    },
    {
      "inputs": [
        {
          "internalType": "address",
          "name": "player",
          "type": "address"
        },
        {
          "internalType": "uint256",
          "name": "startIndex",
          "type": "uint256"
        },
        {
          "internalType": "uint256",
          "name": "size",
          "type": "uint256"
        }
      ],
      "name": "getPlayerMinersPaginated",
      "outputs": [
        {
          "components": [
            {
              "internalType": "uint256",
              "name": "id",
              "type": "uint256"
            },
            {
              "internalType": "uint256",
              "name": "x",
              "type": "uint256"
            },
            {
              "internalType": "uint256",
              "name": "y",
              "type": "uint256"
            },
            {
              "internalType": "uint256",
              "name": "minerIndex",
              "type": "uint256"
            },
            {
              "internalType": "uint256",
              "name": "hashrate",
              "type": "uint256"
            },
            {
              "internalType": "uint256",
              "name": "powerConsumption",
              "type": "uint256"
            },
            {
              "internalType": "uint256",
              "name": "cost",
              "type": "uint256"
            },
            {
              "internalType": "bool",
              "name": "inProduction",
              "type": "bool"
            }
          ],
          "internalType": "struct Miner[]",
          "name": "",
          "type": "tuple[]"
        }
      ],
      "stateMutability": "view",
      "type": "function"
    },
    {
      "inputs": [
        {
          "internalType": "address",
          "name": "referrer",
          "type": "address"
        }
      ],
      "name": "getReferrals",
      "outputs": [
        {
          "internalType": "address[]",
          "name": "",
          "type": "address[]"
        }
      ],
      "stateMutability": "view",
      "type": "function"
    },
    {
      "inputs": [],
      "name": "initialFacilityPrice",
      "outputs": [
        {
          "internalType": "uint256",
          "name": "",
          "type": "uint256"
        }
      ],
      "stateMutability": "view",
      "type": "function"
    },
    {
      "inputs": [
        {
          "internalType": "address",
          "name": "",
          "type": "address"
        }
      ],
      "name": "initializedStarterFacility",
      "outputs": [
        {
          "internalType": "bool",
          "name": "",
          "type": "bool"
        }
      ],
      "stateMutability": "view",
      "type": "function"
    },
    {
      "inputs": [
        {
          "internalType": "address",
          "name": "",
          "type": "address"
        }
      ],
      "name": "lastFacilityUpgradeTimestamp",
      "outputs": [
        {
          "internalType": "uint256",
          "name": "",
          "type": "uint256"
        }
      ],
      "stateMutability": "view",
      "type": "function"
    },
    {
      "inputs": [],
      "name": "lastRewardBlock",
      "outputs": [
        {
          "internalType": "uint256",
          "name": "",
          "type": "uint256"
        }
      ],
      "stateMutability": "view",
      "type": "function"
    },
    {
      "inputs": [
        {
          "internalType": "uint256",
          "name": "",
          "type": "uint256"
        }
      ],
      "name": "minerSecondHandMarket",
      "outputs": [
        {
          "internalType": "uint256",
          "name": "",
          "type": "uint256"
        }
      ],
      "stateMutability": "view",
      "type": "function"
    },
    {
      "inputs": [
        {
          "internalType": "uint256",
          "name": "",
          "type": "uint256"
        }
      ],
      "name": "miners",
      "outputs": [
        {
          "internalType": "uint256",
          "name": "id",
          "type": "uint256"
        },
        {
          "internalType": "uint256",
          "name": "x",
          "type": "uint256"
        },
        {
          "internalType": "uint256",
          "name": "y",
          "type": "uint256"
        },
        {
          "internalType": "uint256",
          "name": "minerIndex",
          "type": "uint256"
        },
        {
          "internalType": "uint256",
          "name": "hashrate",
          "type": "uint256"
        },
        {
          "internalType": "uint256",
          "name": "powerConsumption",
          "type": "uint256"
        },
        {
          "internalType": "uint256",
          "name": "cost",
          "type": "uint256"
        },
        {
          "internalType": "bool",
          "name": "inProduction",
          "type": "bool"
        }
      ],
      "stateMutability": "view",
      "type": "function"
    },
    {
      "inputs": [],
      "name": "miningHasStarted",
      "outputs": [
        {
          "internalType": "bool",
          "name": "",
          "type": "bool"
        }
      ],
      "stateMutability": "view",
      "type": "function"
    },
    {
      "inputs": [],
      "name": "owner",
      "outputs": [
        {
          "internalType": "address",
          "name": "",
          "type": "address"
        }
      ],
      "stateMutability": "view",
      "type": "function"
    },
    {
      "inputs": [
        {
          "internalType": "address",
          "name": "",
          "type": "address"
        }
      ],
      "name": "ownerToFacility",
      "outputs": [
        {
          "internalType": "uint256",
          "name": "facilityIndex",
          "type": "uint256"
        },
        {
          "internalType": "uint256",
          "name": "maxMiners",
          "type": "uint256"
        },
        {
          "internalType": "uint256",
          "name": "totalPowerOutput",
          "type": "uint256"
        },
        {
          "internalType": "uint256",
          "name": "x",
          "type": "uint256"
        },
        {
          "internalType": "uint256",
          "name": "y",
          "type": "uint256"
        },
        {
          "internalType": "uint256",
          "name": "currMiners",
          "type": "uint256"
        },
        {
          "internalType": "uint256",
          "name": "currPowerOutput",
          "type": "uint256"
        }
      ],
      "stateMutability": "view",
      "type": "function"
    },
    {
      "inputs": [
        {
          "internalType": "address",
          "name": "player",
          "type": "address"
        }
      ],
      "name": "pendingRewards",
      "outputs": [
        {
          "internalType": "uint256",
          "name": "",
          "type": "uint256"
        }
      ],
      "stateMutability": "view",
      "type": "function"
    },
    {
      "inputs": [
        {
          "internalType": "address",
          "name": "",
          "type": "address"
        }
      ],
      "name": "playerEthermaxDebt",
      "outputs": [
        {
          "internalType": "uint256",
          "name": "",
          "type": "uint256"
        }
      ],
      "stateMutability": "view",
      "type": "function"
    },
    {
      "inputs": [
        {
          "internalType": "address",
          "name": "player",
          "type": "address"
        }
      ],
      "name": "playerEthermaxPerBlock",
      "outputs": [
        {
          "internalType": "uint256",
          "name": "",
          "type": "uint256"
        }
      ],
      "stateMutability": "view",
      "type": "function"
    },
    {
      "inputs": [
        {
          "internalType": "address",
          "name": "",
          "type": "address"
        }
      ],
      "name": "playerHashrate",
      "outputs": [
        {
          "internalType": "uint256",
          "name": "",
          "type": "uint256"
        }
      ],
      "stateMutability": "view",
      "type": "function"
    },
    {
      "inputs": [
        {
          "internalType": "uint256",
          "name": "",
          "type": "uint256"
        }
      ],
      "name": "playerMinersId",
      "outputs": [
        {
          "internalType": "uint256",
          "name": "id",
          "type": "uint256"
        },
        {
          "internalType": "uint256",
          "name": "x",
          "type": "uint256"
        },
        {
          "internalType": "uint256",
          "name": "y",
          "type": "uint256"
        },
        {
          "internalType": "uint256",
          "name": "minerIndex",
          "type": "uint256"
        },
        {
          "internalType": "uint256",
          "name": "hashrate",
          "type": "uint256"
        },
        {
          "internalType": "uint256",
          "name": "powerConsumption",
          "type": "uint256"
        },
        {
          "internalType": "uint256",
          "name": "cost",
          "type": "uint256"
        },
        {
          "internalType": "bool",
          "name": "inProduction",
          "type": "bool"
        }
      ],
      "stateMutability": "view",
      "type": "function"
    },
    {
      "inputs": [
        {
          "internalType": "address",
          "name": "",
          "type": "address"
        }
      ],
      "name": "playerMinersOwned",
      "outputs": [
        {
          "internalType": "uint256",
          "name": "_spacer",
          "type": "uint256"
        }
      ],
      "stateMutability": "view",
      "type": "function"
    },
    {
      "inputs": [
        {
          "internalType": "address",
          "name": "",
          "type": "address"
        },
        {
          "internalType": "uint256",
          "name": "",
          "type": "uint256"
        },
        {
          "internalType": "uint256",
          "name": "",
          "type": "uint256"
        }
      ],
      "name": "playerOccupiedCoords",
      "outputs": [
        {
          "internalType": "bool",
          "name": "",
          "type": "bool"
        }
      ],
      "stateMutability": "view",
      "type": "function"
    },
    {
      "inputs": [
        {
          "internalType": "address",
          "name": "",
          "type": "address"
        }
      ],
      "name": "playerPendingRewards",
      "outputs": [
        {
          "internalType": "uint256",
          "name": "",
          "type": "uint256"
        }
      ],
      "stateMutability": "view",
      "type": "function"
    },
    {
      "inputs": [
        {
          "internalType": "address",
          "name": "referrer",
          "type": "address"
        }
      ],
      "name": "purchaseInitialFacility",
      "outputs": [],
      "stateMutability": "payable",
      "type": "function"
    },
    {
      "inputs": [
        {
          "internalType": "address",
          "name": "",
          "type": "address"
        }
      ],
      "name": "referralBonusPaid",
      "outputs": [
        {
          "internalType": "uint256",
          "name": "",
          "type": "uint256"
        }
      ],
      "stateMutability": "view",
      "type": "function"
    },
    {
      "inputs": [],
      "name": "referralFee",
      "outputs": [
        {
          "internalType": "uint256",
          "name": "",
          "type": "uint256"
        }
      ],
      "stateMutability": "view",
      "type": "function"
    },
    {
      "inputs": [
        {
          "internalType": "address",
          "name": "",
          "type": "address"
        }
      ],
      "name": "referrals",
      "outputs": [
        {
          "internalType": "address",
          "name": "",
          "type": "address"
        }
      ],
      "stateMutability": "view",
      "type": "function"
    },
    {
      "inputs": [
        {
          "internalType": "address",
          "name": "",
          "type": "address"
        },
        {
          "internalType": "uint256",
          "name": "",
          "type": "uint256"
        }
      ],
      "name": "referredUsers",
      "outputs": [
        {
          "internalType": "address",
          "name": "",
          "type": "address"
        }
      ],
      "stateMutability": "view",
      "type": "function"
    },
    {
      "inputs": [],
      "name": "renounceOwnership",
      "outputs": [],
      "stateMutability": "nonpayable",
      "type": "function"
    },
    {
      "inputs": [
        {
          "internalType": "uint256",
          "name": "minerId",
          "type": "uint256"
        }
      ],
      "name": "sellMiner",
      "outputs": [],
      "stateMutability": "nonpayable",
      "type": "function"
    },
    {
      "inputs": [
        {
          "internalType": "uint256",
          "name": "burn",
          "type": "uint256"
        }
      ],
      "name": "setBurnPct",
      "outputs": [],
      "stateMutability": "nonpayable",
      "type": "function"
    },
    {
      "inputs": [
        {
          "internalType": "uint256",
          "name": "_cooldown",
          "type": "uint256"
        }
      ],
      "name": "setCooldown",
      "outputs": [],
      "stateMutability": "nonpayable",
      "type": "function"
    },
    {
      "inputs": [
        {
          "internalType": "address",
          "name": "_dekalitRektoshi",
          "type": "address"
        }
      ],
      "name": "setDekalitRektoshi",
      "outputs": [],
      "stateMutability": "nonpayable",
      "type": "function"
    },
    {
      "inputs": [
        {
          "internalType": "address",
          "name": "_etherMax",
          "type": "address"
        }
      ],
      "name": "setEthermax",
      "outputs": [],
      "stateMutability": "nonpayable",
      "type": "function"
    },
    {
      "inputs": [
        {
          "internalType": "uint256",
          "name": "facilityIndex",
          "type": "uint256"
        },
        {
          "internalType": "uint256",
          "name": "fee",
          "type": "uint256"
        }
      ],
      "name": "setFacilityFee",
      "outputs": [],
      "stateMutability": "nonpayable",
      "type": "function"
    },
    {
      "inputs": [
        {
          "internalType": "address",
          "name": "_facilityFeeRecipient",
          "type": "address"
        }
      ],
      "name": "setFacilityFeeRecipient",
      "outputs": [],
      "stateMutability": "nonpayable",
      "type": "function"
    },
    {
      "inputs": [
        {
          "internalType": "uint256",
          "name": "_initialPrice",
          "type": "uint256"
        }
      ],
      "name": "setInitialFacilityPrice",
      "outputs": [],
      "stateMutability": "nonpayable",
      "type": "function"
    },
    {
      "inputs": [
        {
          "internalType": "uint256",
          "name": "fee",
          "type": "uint256"
        }
      ],
      "name": "setReferralFee",
      "outputs": [],
      "stateMutability": "nonpayable",
      "type": "function"
    },
    {
      "inputs": [],
      "name": "startBlock",
      "outputs": [
        {
          "internalType": "uint256",
          "name": "",
          "type": "uint256"
        }
      ],
      "stateMutability": "view",
      "type": "function"
    },
    {
      "inputs": [
        {
          "internalType": "address",
          "name": "player",
          "type": "address"
        }
      ],
      "name": "timeUntilNextFacilityUpgrade",
      "outputs": [
        {
          "internalType": "uint256",
          "name": "",
          "type": "uint256"
        }
      ],
      "stateMutability": "view",
      "type": "function"
    },
    {
      "inputs": [
        {
          "internalType": "uint256",
          "name": "facilityIndex",
          "type": "uint256"
        },
        {
          "internalType": "bool",
          "name": "inProduction",
          "type": "bool"
        }
      ],
      "name": "toggleFacilityProduction",
      "outputs": [],
      "stateMutability": "nonpayable",
      "type": "function"
    },
    {
      "inputs": [
        {
          "internalType": "uint256",
          "name": "minerIndex",
          "type": "uint256"
        },
        {
          "internalType": "bool",
          "name": "inProduction",
          "type": "bool"
        }
      ],
      "name": "toggleMinerProduction",
      "outputs": [],
      "stateMutability": "nonpayable",
      "type": "function"
    },
    {
      "inputs": [],
      "name": "totalHashrate",
      "outputs": [
        {
          "internalType": "uint256",
          "name": "",
          "type": "uint256"
        }
      ],
      "stateMutability": "view",
      "type": "function"
    },
    {
      "inputs": [
        {
          "internalType": "address",
          "name": "newOwner",
          "type": "address"
        }
      ],
      "name": "transferOwnership",
      "outputs": [],
      "stateMutability": "nonpayable",
      "type": "function"
    },
    {
      "inputs": [],
      "name": "uniqueMinerCount",
      "outputs": [
        {
          "internalType": "uint256",
          "name": "",
          "type": "uint256"
        }
      ],
      "stateMutability": "view",
      "type": "function"
    },
    {
      "inputs": [],
      "name": "withdraw",
      "outputs": [],
      "stateMutability": "nonpayable",
      "type": "function"
    },
    {
      "inputs": [
        {
          "internalType": "uint256",
          "name": "amt",
          "type": "uint256"
        }
      ],
      "name": "withdrawEthermax",
      "outputs": [],
      "stateMutability": "nonpayable",
      "type": "function"
    }
  ],
  "bytecode": "0x60c060405262015180600b556658d15e17628000600c55670a688906bd8b0000600d55662386f26fc100006020553480156200003a57600080fd5b5033806200006257604051631e4fbdf760e01b81526000600482015260240160405180910390fd5b6200006d8162000204565b506006600081546200007f9062000254565b9190508190556080818152505060405180610100016040528060805181526020016000198152602001600019815260200160001981526020016064815260200160018152602001600019815260200160001515815250601160006080518152602001908152602001600020600082015181600001556020820151816001015560408201518160020155606082015181600301556080820151816004015560a0820151816005015560c0820151816006015560e08201518160070160006101000a81548160ff0219169083151502179055509050506040518060c0016040528060048152602001601c81526020016000198152602001600015158152602001600281526020016002815250601260006007600081546200019e9062000254565b918290555081526020808201929092526040908101600020835181559183015160018301558201516002820155606082015160038201805460ff19169115159190911790556080820151600482015560a09182015160059091015560075490526200027c565b600080546001600160a01b038381166001600160a01b0319831681178455604051919092169283917f8be0079c531659141344cd1fd0a4f28419497f9722a3daafe3b4186f6b6457e09190a35050565b6000600182016200027557634e487b7160e01b600052601160045260246000fd5b5060010190565b60805160a051613c39620002d36000396000818161086001528181611e34015281816124cb0152612a64015260008181610e4901528181611a2f01528181611c3501528181612418015261295a0152613c396000f3fe6080604052600436106103fa5760003560e01c806372779cba11610213578063aded46db11610123578063dd6a4c65116100ab578063e2b15d8c1161007a578063e2b15d8c14610dd6578063e92820e614610e17578063ea26fa2d14610e37578063eef3b2d014610e6b578063f2fde38b14610e8157600080fd5b8063dd6a4c6514610ca2578063df1e3b7f14610d40578063e041dda514610d60578063e0d152af14610d7557600080fd5b8063c51a2bba116100f2578063c51a2bba14610bf5578063ca18117014610c15578063cbea07ce14610c45578063d147129614610c62578063d9ba62b314610c8257600080fd5b8063aded46db14610b7f578063bfe5990d14610b95578063c243589414610bb5578063c3573e3c14610bd557600080fd5b80638da5cb5b116101a65780639ca423b3116101755780639ca423b314610ad35780639f715f6014610b09578063a867a99114610b29578063a9f8d18114610b49578063aa9dc65414610b5f57600080fd5b80638da5cb5b14610a455780638dfc393314610a6357806394fc19e414610aa35780639618b31c14610abd57600080fd5b8063811c5089116101e2578063811c5089146109d357806384ae2bc6146109f35780638685e3f214610a0957806386b3cd2614610a2957600080fd5b806372779cba1461095a578063787a08a6146109705780637e08b5b3146109865780637fdaa1cd146109b357600080fd5b80633e89bb131161030e57806359058ad1116102a15780636756a1c7116102705780636756a1c7146108cf57806369f0ee33146108ef5780636d12ff521461090f578063713494d714610925578063715018a61461094557600080fd5b806359058ad11461084e5780635a5ccef0146108825780635c7421e3146108985780635fd9491d146108b857600080fd5b8063476e2e66116102dd578063476e2e661461076b57806348cd4cb11461078b5780634fc3f41a146107a1578063542f9e6a146107c157600080fd5b80633e89bb13146106d157806340f5da9e146106e457806341a0894d14610711578063453dfbfb1461073e57600080fd5b8063281017061161039157806332af7cae1161036057806332af7cae14610622578063372500ab1461065a5780633a8ee01e1461066f5780633b6e41a41461068f5780633ccfd60b146106bc57600080fd5b806328101706146105b85780632fc96ce6146105d857806330775a94146105ed57806331d7a2621461060257600080fd5b80631a267cd2116103cd5780631a267cd2146104f65780631e57057d14610531578063234f3f1b1461055e57806324b4464e1461058b57600080fd5b80630e55b68e146103ff57806310d9675914610421578063157e204c146104a957806315cfde41146104d6575b600080fd5b34801561040b57600080fd5b5061041f61041a366004613763565b610ea1565b005b34801561042d57600080fd5b5061047561043c36600461377e565b60126020526000908152604090208054600182015460028301546003840154600485015460059095015493949293919260ff9091169186565b6040805196875260208701959095529385019290925215156060840152608083015260a082015260c0015b60405180910390f35b3480156104b557600080fd5b506104c96104c4366004613797565b610ecb565b6040516104a091906137ca565b3480156104e257600080fd5b5061041f6104f1366004613763565b61107d565b34801561050257600080fd5b50610523610511366004613763565b601d6020526000908152604090205481565b6040519081526020016104a0565b34801561053d57600080fd5b5061052361054c366004613763565b60136020526000908152604090205481565b34801561056a57600080fd5b50610523610579366004613763565b600e6020526000908152604090205481565b34801561059757600080fd5b506105236105a636600461377e565b60186020526000908152604090205481565b3480156105c457600080fd5b506105236105d3366004613763565b6110a7565b3480156105e457600080fd5b50610523611121565b3480156105f957600080fd5b5061041f611198565b34801561060e57600080fd5b5061052361061d366004613763565b6114e2565b34801561062e57600080fd5b50600154610642906001600160a01b031681565b6040516001600160a01b0390911681526020016104a0565b34801561066657600080fd5b5061041f6116eb565b34801561067b57600080fd5b5061041f61068a366004613859565b6119dc565b34801561069b57600080fd5b506105236106aa36600461377e565b601e6020526000908152604090205481565b3480156106c857600080fd5b5061041f611cb5565b61041f6106df366004613763565b611d39565b3480156106f057600080fd5b506105236106ff366004613763565b600f6020526000908152604090205481565b34801561071d57600080fd5b5061073161072c366004613763565b611f0f565b6040516104a0919061387b565b34801561074a57600080fd5b50610523610759366004613763565b60106020526000908152604090205481565b34801561077757600080fd5b5061041f6107863660046138c8565b611f85565b34801561079757600080fd5b5061052360035481565b3480156107ad57600080fd5b5061041f6107bc36600461377e565b612385565b3480156107cd57600080fd5b506108196107dc366004613763565b6015602052600090815260409020805460018201546002830154600384015460048501546005860154600690960154949593949293919290919087565b604080519788526020880196909652948601939093526060850191909152608084015260a083015260c082015260e0016104a0565b34801561085a57600080fd5b506105237f000000000000000000000000000000000000000000000000000000000000000081565b34801561088e57600080fd5b5061052360095481565b3480156108a457600080fd5b5061041f6108b3366004613859565b612392565b3480156108c457600080fd5b506105236213c68081565b3480156108db57600080fd5b5061041f6108ea366004613859565b6123eb565b3480156108fb57600080fd5b5061041f61090a366004613859565b61249e565b34801561091b57600080fd5b5061052360075481565b34801561093157600080fd5b5061041f61094036600461377e565b612551565b34801561095157600080fd5b5061041f612587565b34801561096657600080fd5b5061052360065481565b34801561097c57600080fd5b50610523600b5481565b34801561099257600080fd5b506105236109a1366004613763565b601a6020526000908152604090205481565b3480156109bf57600080fd5b50600254610642906001600160a01b031681565b3480156109df57600080fd5b506105236109ee366004613763565b61259b565b3480156109ff57600080fd5b50610523600c5481565b348015610a1557600080fd5b5061041f610a24366004613902565b612604565b348015610a3557600080fd5b50610523670de0b6b3a764000081565b348015610a5157600080fd5b506000546001600160a01b0316610642565b348015610a6f57600080fd5b50610a93610a7e366004613763565b60176020526000908152604090205460ff1681565b60405190151581526020016104a0565b348015610aaf57600080fd5b50600454610a939060ff1681565b348015610ac957600080fd5b50610523600d5481565b348015610adf57600080fd5b50610642610aee366004613763565b601b602052600090815260409020546001600160a01b031681565b348015610b1557600080fd5b5061041f610b24366004613955565b6127b6565b348015610b3557600080fd5b50601f54610642906001600160a01b031681565b348015610b5557600080fd5b5061052360085481565b348015610b6b57600080fd5b5061041f610b7a36600461377e565b6128b5565b348015610b8b57600080fd5b50610523600a5481565b348015610ba157600080fd5b5061041f610bb0366004613859565b612936565b348015610bc157600080fd5b5061041f610bd0366004613996565b612950565b348015610be157600080fd5b5061041f610bf0366004613763565b6129fa565b348015610c0157600080fd5b5061041f610c1036600461377e565b612a24565b348015610c2157600080fd5b50610a93610c30366004613763565b60166020526000908152604090205460ff1681565b348015610c5157600080fd5b506105236802b5e3af16b188000081565b348015610c6e57600080fd5b5061041f610c7d366004613996565b612a5a565b348015610c8e57600080fd5b5061041f610c9d36600461377e565b612b04565b348015610cae57600080fd5b50610d03610cbd36600461377e565b6014602052600090815260409020805460018201546002830154600384015460048501546005860154600687015460079097015495969495939492939192909160ff1688565b604080519889526020890197909752958701949094526060860192909252608085015260a084015260c0830152151560e0820152610100016104a0565b348015610d4c57600080fd5b5061041f610d5b36600461377e565b612def565b348015610d6c57600080fd5b50610523612dfc565b348015610d8157600080fd5b50610d03610d9036600461377e565b6011602052600090815260409020805460018201546002830154600384015460048501546005860154600687015460079097015495969495939492939192909160ff1688565b348015610de257600080fd5b50610a93610df1366004613797565b601960209081526000938452604080852082529284528284209052825290205460ff1681565b348015610e2357600080fd5b50610642610e323660046139c6565b612e4d565b348015610e4357600080fd5b506105237f000000000000000000000000000000000000000000000000000000000000000081565b348015610e7757600080fd5b5061052360205481565b348015610e8d57600080fd5b5061041f610e9c366004613763565b612e85565b610ea9612ec8565b600280546001600160a01b0319166001600160a01b0392909216919091179055565b6001600160a01b0383166000908152601360205260408120606091610eef82612ef5565b9050808510610f33576040805160008082526020820190925290610f29565b610f16613700565b815260200190600190039081610f0e5790505b5092505050611076565b6000610f3f8683613a1c565b90506000818611610f505785610f52565b815b905060008167ffffffffffffffff811115610f6f57610f6f6139f0565b604051908082528060200260200182016040528015610fa857816020015b610f95613700565b815260200190600190039081610f8d5790505b50905060005b8281101561106e5760146000610fce610fc7848d613a2f565b8990612f00565b81526020808201929092526040908101600020815161010081018352815481526001820154938101939093526002810154918301919091526003810154606083015260048101546080830152600581015460a0830152600681015460c08301526007015460ff16151560e0820152825183908390811061105057611050613a42565b6020026020010181905250808061106690613a58565b915050610fae565b509450505050505b9392505050565b611085612ec8565b600180546001600160a01b0319166001600160a01b0392909216919091179055565b60006009546000036110bb57506000919050565b60006213c680600354436110cf9190613a1c565b6110d99190613a87565b6110e4906002613b7f565b6110f7906802b5e3af16b1880000613a87565b6001600160a01b0384166000908152600e6020526040902054600954919250611076918390612f0c565b600060035460000361114657604051633017f16560e11b815260040160405180910390fd5b60006213c6806111568143613a87565b611161906001613a2f565b61116b9190613b8b565b6213c68060035461117c9190613ba2565b6111869190613a2f565b90506111924382613a1c565b91505090565b3360009081526016602052604090205460ff166111c8576040516306016a2760e11b815260040160405180910390fd5b336000908152601560205260409020805460075481036111fb576040516372932dd360e01b815260040160405180910390fd5b600b54336000908152601a60205260409020546112189042613a1c565b1015611237576040516341fde9ef60e01b815260040160405180910390fd5b6000601281611247846001613a2f565b81526020808201929092526040908101600020815160c08101835281548152600182015493810193909352600281015491830191909152600381015460ff161515606083018190526004820154608084015260059091015460a08301529091506112c4576040516323e697d360e11b815260040160405180910390fd5b60408181015160015491516370a0823160e01b815233600482015290916001600160a01b0316906370a0823190602401602060405180830381865afa158015611311573d6000803e3d6000fd5b505050506040513d601f19601f820116820180604052508101906113359190613bb6565b1015611357576040516001627a6f0d60e11b0319815260040160405180910390fd5b60015460408281015190516323b872dd60e01b815233600482015230602482015260448101919091526001600160a01b03909116906323b872dd906064016020604051808303816000875af11580156113b4573d6000803e3d6000fd5b505050506040513d601f19601f820116820180604052508101906113d89190613bcf565b506001546040820151600d546001600160a01b03909216916342966c68916113ff91612f32565b6040518263ffffffff1660e01b815260040161141d91815260200190565b600060405180830381600087803b15801561143757600080fd5b505af115801561144b573d6000803e3d6000fd5b505084549150849050600061145f83613a58565b90915550508051600184015560208082015160028501556080820151600385015560a08201516004850155336000818152601a835260409081902042905585548185015182519182529381019390935290917fe2dbc44c627e3876b04b29d12596a77c7d0fa585ccb754b9fcd92e48d813dd7791015b60405180910390a2505050565b60045460009060ff166114f757506000919050565b60095460000361153f576001600160a01b0382166000908152600f6020526040902054600c54611539919061153490670de0b6b3a7640000613a1c565b612f32565b92915050565b6008546003546000906213c680906115579084613a1c565b6115619190613a87565b61156c906002613b7f565b61157f906802b5e3af16b1880000613a87565b600a549091505b4383101561164c5760006213c68061159e8186613a87565b6115a9906001613a2f565b6115b39190613b8b565b6213c6806003546115c49190613ba2565b6115ce9190613a2f565b905060004382106115df57436115e1565b815b6009549091501561162d57600954670de0b6b3a76400006116028784613a1c565b61160c9087613b8b565b6116169190613b8b565b6116209190613a87565b61162a9084613a2f565b92505b80945081850361164557611642600285613a87565b93505b5050611586565b6001600160a01b0385166000908152601060205260409020546116e290670de0b6b3a76400009061167d9084613a1c565b6001600160a01b0388166000908152600e60205260409020546116a09190613b8b565b6116aa9190613a87565b6001600160a01b0387166000908152600f60205260409020546116cd9190613a2f565b600c5461153490670de0b6b3a7640000613a1c565b95945050505050565b6116f433612f64565b336000908152600f6020526040812054908190036117255760405163037dc8f760e21b815260040160405180910390fd5b3360009081526015602090815260408083208054600f909352908320839055600c54909290611755908590612f32565b905060006117638286613a1c565b6000848152601e602052604081205491925090611781908390612f32565b905061178d8183613a1c565b600154601f546040516340c10f1960e01b81526001600160a01b0391821660048201526024810185905292945016906340c10f1990604401600060405180830381600087803b1580156117df57600080fd5b505af11580156117f3573d6000803e3d6000fd5b50506001546040516340c10f1960e01b8152336004820152602481018690526001600160a01b0390911692506340c10f199150604401600060405180830381600087803b15801561184357600080fd5b505af1158015611857573d6000803e3d6000fd5b5050336000908152601b60205260409020546001600160a01b03169150508015611914576001546040516340c10f1960e01b81526001600160a01b03838116600483015260248201879052909116906340c10f1990604401600060405180830381600087803b1580156118c957600080fd5b505af11580156118dd573d6000803e3d6000fd5b505050506001600160a01b0381166000908152601d602052604081208054869290611909908490613a2f565b9091555061199e9050565b6001546040516340c10f1960e01b8152306004820152602481018690526001600160a01b03909116906340c10f1990604401600060405180830381600087803b15801561196057600080fd5b505af1158015611974573d6000803e3d6000fd5b5050306000908152601d602052604081208054889450909250611998908490613a2f565b90915550505b60405187815233907ffc30cddea38e2bf4d6ea7d3f9ed3b6ad7f176419f4963bd81318067a4aee73fe9060200160405180910390a250505050505050565b3360009081526017602052604090205460ff1615611a0d57604051633874d2ad60e11b815260040160405180910390fd5b336000818152601760209081526040808320805460ff191660019081179091557f000000000000000000000000000000000000000000000000000000000000000084526011835281842082516101008101845281548152918101548285015260028101548284015260038082015460608401526004808301546080850152600583015460a0850152600683015460c085015260079092015460ff16151560e0840152958552601590935292209283015490830154919291611ad2918691869190613014565b15611af057604051632a00382b60e21b815260040160405180910390fd5b80600201548260a001518260060154611b099190613a2f565b1115611b28576040516303eff4bd60e61b815260040160405180910390fd5b602082018490526040820183905260058054600090611b4690613a58565b9182905550825233600081815260196020908152604080832088845282528083208784528252808320805460ff1916600117905560055493835260139091529020611b9091613062565b50600580546000908152601460209081526040808320865181559186015160018301558501516002820155606085015160038201556080850151600482015560a08501518184015560c0850151600682015560e08501516007909101805460ff1916911515919091179055908201805491611c0a83613a58565b91905055508160a00151816006016000828254611c279190613a2f565b9091555050600554604080517f000000000000000000000000000000000000000000000000000000000000000081526000602082015290810191909152606081018590526080810184905233907f70a5d2d3258adcf9978a193a4dd8fa309ae83a9f1046a0a5ea99a133bf34f9a59060a00160405180910390a2611caf33836080015161306e565b50505050565b611cbd612ec8565b60025460405147916000916001600160a01b039091169083908381818185875af1925050503d8060008114611d0e576040519150601f19603f3d011682016040523d82523d6000602084013e611d13565b606091505b5050905080611d3557604051631d42c86760e21b815260040160405180910390fd5b5050565b6020543414611d5b57604051636956f2ab60e11b815260040160405180910390fd5b3360009081526016602052604090205460ff1615611d8c576040516311fcdefb60e31b815260040160405180910390fd5b336001600160a01b03821603611db557604051630c22084560e31b815260040160405180910390fd5b336000908152601660205260409020805460ff191660011790556001600160a01b03811615611e3257336000818152601b6020908152604080832080546001600160a01b0387166001600160a01b03199182168117909255908452601c835290832080546001810182559084529190922001805490911690911790555b7f00000000000000000000000000000000000000000000000000000000000000006000818152601260209081526040808320815160c081018352815481526001808301548286019081526002808501548487015260038086015460ff16151560608601526004808701546080870190815260059097015460a0870190815233808c526015909a52888b209b8c558651958c01959095559251918a0191909155935193880193909355519186019190915590519093927fe424ed553a53c3a900c875ed34d63043e4dfb799427ee8ae0836b046a603c90e91a2505050565b6001600160a01b0381166000908152601c6020908152604091829020805483518184028101840190945280845260609392830182828015611f7957602002820191906000526020600020905b81546001600160a01b03168152600190910190602001808311611f5b575b50505050509050919050565b60008381526011602090815260408083208151610100810183528154815260018201548185015260028201548184015260038083015460608301526004808401546080840152600584015460a0840152600684015460c084015260079093015460ff16151560e0830152338652601590945291909320918201549282015490926120129186918691613014565b1561203057604051632a00382b60e21b815260040160405180910390fd5b8160e0015161205257604051631551537360e31b815260040160405180910390fd5b60c08201516001546040516370a0823160e01b81523360048201526001600160a01b03909116906370a0823190602401602060405180830381865afa15801561209f573d6000803e3d6000fd5b505050506040513d601f19601f820116820180604052508101906120c39190613bb6565b10156120e5576040516001627a6f0d60e11b0319815260040160405180910390fd5b80600201548260a0015182600601546120fe9190613a2f565b111561211d576040516303eff4bd60e61b815260040160405180910390fd5b60015460c08301516040516323b872dd60e01b815233600482015230602482015260448101919091526001600160a01b03909116906323b872dd906064016020604051808303816000875af115801561217a573d6000803e3d6000fd5b505050506040513d601f19601f8201168201806040525081019061219e9190613bcf565b5060015460c0830151600d546001600160a01b03909216916342966c68916121c591612f32565b6040518263ffffffff1660e01b81526004016121e391815260200190565b600060405180830381600087803b1580156121fd57600080fd5b505af1158015612211573d6000803e3d6000fd5b5050505060208201849052604082018390526005805460009061223390613a58565b9182905550825233600081815260196020908152604080832088845282528083208784528252808320805460ff191660011790556005549383526013909152902061227d91613062565b50600580546000908152601460209081526040808320865181559186015160018301558501516002820155606085015160038201556080850151600482015560a08501518184015560c0850151600682015560e08501516007909101805460ff19169115159190911790559082018054916122f783613a58565b91905055508160a001518160060160008282546123149190613a2f565b909155505060c0820151600554604080518881526020810193909352820152606081018590526080810184905233907f70a5d2d3258adcf9978a193a4dd8fa309ae83a9f1046a0a5ea99a133bf34f9a59060a00160405180910390a261237e33836080015161306e565b5050505050565b61238d612ec8565b600b55565b61239a612ec8565b600082815260186020526040908190208290555182907f86257f0afab037798cc4548a6d86125f52c92410a1e29aff03d787d49dac20db906123df9084815260200190565b60405180910390a25050565b6123f3612ec8565b60065482111561241657604051633a6c77df60e01b815260040160405180910390fd5b7f00000000000000000000000000000000000000000000000000000000000000008203612456576040516311c175a160e21b815260040160405180910390fd5b60008281526011602090815260409182902060068101849055915183815284917ff920b24ea96b3814655944622f9eb86875e3193c5de1a9de018777e6c8705cee91016114d5565b6124a6612ec8565b6007548211156124c957604051630d96812160e31b815260040160405180910390fd5b7f00000000000000000000000000000000000000000000000000000000000000008203612509576040516378fd0bb160e11b815260040160405180910390fd5b60008281526012602090815260409182902060028101849055915183815284917ff721e9425607d38abda58b925d2a080b3aefa127d46973d2683875dc87cb9a6b91016114d5565b612559612ec8565b670de0b6b3a7640000811115612582576040516358d620b360e01b815260040160405180910390fd5b600c55565b61258f612ec8565b6125996000613173565b565b600b546001600160a01b0382166000908152601a6020526040812054909142916125c59190613a2f565b10156125d357506000919050565b600b546001600160a01b0383166000908152601a602052604090205442916125fa91613a2f565b6115399190613a1c565b61260c612ec8565b856126178284613b8b565b14612635576040516311cba80760e21b815260040160405180910390fd5b60075460009081526012602052604090206004015482108061266a575060075460009081526012602052604090206005015481105b15612688576040516311cba80760e21b815260040160405180910390fd5b6007546000908152601260205260409020600101548510156126bd57604051630d2a50ed60e41b815260040160405180910390fd5b6040518060c00160405280878152602001868152602001858152602001841515815260200183815260200182815250601260006007600081546126ff90613a58565b9182905550815260208082019290925260409081016000208351815583830151600182015583820151600282015560608085015160038301805460ff1916911515919091179055608080860151600484015560a09586015160059093019290925560075483518b81529485018a90528815159385019390935283018690528201849052917f6ae4a0e17ec15e82a1af6ff99411c44193a38f27f15c3ddd30b0f09ab1c5fd2c910160405180910390a2505050505050565b6127be612ec8565b6006600081546127cd90613a58565b909155506040805161010081018252600680548083526000602080850182815285870183815260608088018581526080808a018f815260a08b018f815260c08c018f81528e151560e08e018181529b8b5260118a52998e90209c518d55965160018d0155945160028c0155915160038b0155905160048a01559151600589015591518787015593516007909601805460ff191696151596909617909555925485518a8152938401899052948301879052928201929092527fe0a2f8482bbba7e119c069eb63409ac33b15fc516cffed25aeabb6a9669e07c2910160405180910390a250505050565b6128bd612ec8565b60015460025460405163a9059cbb60e01b81526001600160a01b0391821660048201526024810184905291169063a9059cbb906044016020604051808303816000875af1158015612912573d6000803e3d6000fd5b505050506040513d601f19601f82011682018060405250810190611d359190613bcf565b61293e612ec8565b6000918252601e602052604090912055565b612958612ec8565b7f0000000000000000000000000000000000000000000000000000000000000000821080612987575060065482115b156129a557604051633b87f10960e01b815260040160405180910390fd5b60008281526011602090815260409182902060078101805460ff191685151590811790915592519283529184917fd0a7ceb410ade2d440d8ed59d6b338fe480f98025101655790e0de736edddabe91016114d5565b612a02612ec8565b601f80546001600160a01b0319166001600160a01b0392909216919091179055565b612a2c612ec8565b670de0b6b3a7640000811115612a55576040516358d620b360e01b815260040160405180910390fd5b600d55565b612a62612ec8565b7f0000000000000000000000000000000000000000000000000000000000000000821080612a91575060075482115b15612aaf57604051631dbb333f60e31b815260040160405180910390fd5b60008281526012602090815260409182902060038101805460ff191685151590811790915592519283529184917f0bd772fd008a8dd5673c42a4f50f72220b2603eee55113cd6c38ff78d71e644f91016114d5565b336000908152601360205260409020612b1d90826131c3565b612b3a57604051633d9f63cb60e01b815260040160405180910390fd5b600081815260146020908152604080832081516101008101835281548152600180830154828601526002830154828501526003830154606083019081526004808501546080850152600585015460a0850152600685015460c085015260079094015460ff16151560e0840152338752601586528487209051875260189095529483902054945492516370a0823160e01b8152309281019290925293916001600160a01b0316906370a0823190602401602060405180830381865afa158015612c06573d6000803e3d6000fd5b505050506040513d601f19601f82011682018060405250810190612c2a9190613bb6565b811115612c4a5760405163515d3e8160e01b815260040160405180910390fd5b600582018054906000612c5c83613bec565b91905055508260a00151826006016000828254612c799190613a1c565b9091555050336000908152601360205260409020612c9790856131cf565b506000848152601460209081526040808320838155600181018490556002810184905560038101849055600481018490556005810184905560068101849055600701805460ff19908116909155338085526019845282852088850180518752908552838620898501805188529086529584902080549093169092556060808901519251955184519384529483018790528284018a90528201949094526080810192909252517f952aa29dabfc45e8c9bba19903b0a8bb9031c952db14a06ad48af137e5835b079181900360a00190a2612d743384608001516131db565b8015611caf5760015460405163a9059cbb60e01b8152336004820152602481018390526001600160a01b039091169063a9059cbb906044016020604051808303816000875af1158015612dcb573d6000803e3d6000fd5b505050506040513d601f19601f8201168201806040525081019061237e9190613bcf565b612df7612ec8565b602055565b60045460009060ff16612e0f5750600090565b60006213c68060035443612e239190613a1c565b612e2d9190613a87565b9050612e3a816002613b7f565b611192906802b5e3af16b1880000613a87565b601c6020528160005260406000208181548110612e6957600080fd5b6000918252602090912001546001600160a01b03169150829050565b612e8d612ec8565b6001600160a01b038116612ebc57604051631e4fbdf760e01b8152600060048201526024015b60405180910390fd5b612ec581613173565b50565b6000546001600160a01b031633146125995760405163118cdaa760e01b8152336004820152602401612eb3565b600061153982613283565b600061107683836132d3565b82820283158482048414178202612f2b5763ad251c276000526004601cfd5b0492915050565b60008160001904831115612f54578115612f545763bac65e5b6000526004601cfd5b50670de0b6b3a764000091020490565b612f6c61331d565b6001600160a01b038116600090815260106020526040902054600a54670de0b6b3a764000091612f9b91613a1c565b6001600160a01b0383166000908152600e6020526040902054612fbe9190613b8b565b612fc89190613a87565b6001600160a01b0382166000908152600f602052604081208054909190612ff0908490613a2f565b9091555050600a546001600160a01b03909116600090815260106020526040902055565b600082851015806130255750818410155b156130325750600161305a565b50336000908152601960209081526040808320878452825280832086845290915290205460ff165b949350505050565b60006110768383613441565b60045460ff166130cb576004805460ff1916600117905543600381905560088190556040517fdaae9aa758637a0d349f036f099afd70aa88d8ac63fce096321de512ffebc16c916130c29190815260200190565b60405180910390a15b6130d482612f64565b80600960008282546130e69190613a2f565b90915550506001600160a01b0382166000908152600e602052604081208054839290613113908490613a2f565b90915550506001600160a01b0382166000908152600e6020908152604080832054600f8352928190205481519384529183019190915233917fa051d58ced8df58040b29d2c939da70a826ae40290f77c9a66b38b8b85315f6591016123df565b600080546001600160a01b038381166001600160a01b0319831681178455604051919092169283917f8be0079c531659141344cd1fd0a4f28419497f9722a3daafe3b4186f6b6457e09190a35050565b60006110768383613562565b600061107683836135ef565b6131e482612f64565b80600960008282546131f69190613a1c565b90915550506001600160a01b0382166000908152600e602052604081208054839290613223908490613a1c565b90915550506001600160a01b0382166000908152600e6020908152604080832054600f8352928190205481519384529183019190915233917fe331ada0d0e61e9a4196bf4994f2519193d70a601daff346c4276d591664da9a91016123df565b6318fb58646004526000818152602481208019548060011c9250806132cc57815460009350156132cc576001925082820154156132cc576002925082820154156132cc57600392505b5050919050565b6318fb586460045260008281526024902081015468fbb67fda52d4bfb8bf811415026132fe83613283565b821061153957604051634e23d03560e01b815260040160405180910390fd5b60095460000361332d5743600855565b6008546003546000906213c680906133459084613a1c565b61334f9190613a87565b61335a906002613b7f565b61336d906802b5e3af16b1880000613a87565b90505b438210156134395760006213c6806133888185613a87565b613393906001613a2f565b61339d9190613b8b565b6213c6806003546133ae9190613ba2565b6133b89190613a2f565b905060004382106133c957436133cb565b815b600954909150670de0b6b3a76400006133e48684613a1c565b6133ee9086613b8b565b6133f89190613b8b565b6134029190613a87565b600a60008282546134139190613a2f565b925050819055508093508184036134325761342f600284613a87565b92505b5050613370565b505043600855565b6318fb586460045260008281526024812068fbb67fda52d4bfb8bf83036134705763f5a267f16000526004601cfd5b826134825768fbb67fda52d4bfb8bf92505b8019548160205280613527578154806134a257848355600193505061355a565b8481036134af575061355a565b6001830154806134ca5785600185015560019450505061355a565b8581036134d857505061355a565b6002840154806134f4578660028601556001955050505061355a565b8681036135035750505061355a565b60009283526040808420600190559183528183206002905582529020600390555060075b836000526040600020805461355857600191821c8381018690558083019182905590821b821783195590925061355a565b505b505092915050565b6318fb586460045260008281526024812068fbb67fda52d4bfb8bf83036135915763f5a267f16000526004601cfd5b826135a35768fbb67fda52d4bfb8bf92505b8019546135d55780546001925083146135e857600181015483146135e857600281015483146135e857600091506135e8565b8060205282600052604060002054151591505b5092915050565b6318fb586460045260008281526024812068fbb67fda52d4bfb8bf830361361e5763f5a267f16000526004601cfd5b826136305768fbb67fda52d4bfb8bf92505b8019548061369d57600192508382540361365e5760018201805483556002830180549091556000905561355a565b8360018301540361367d5760028201805460018401556000905561355a565b83600283015403613694576000600283015561355a565b6000925061355a565b816020528360005260406000208054806136b857505061355a565b60018360011c0392508260018203146136e4578284015480600183038601558060005250806040600020555b5060018260011b17831955600081555060019250505092915050565b604051806101000160405280600081526020016000815260200160008152602001600081526020016000815260200160008152602001600081526020016000151581525090565b80356001600160a01b038116811461375e57600080fd5b919050565b60006020828403121561377557600080fd5b61107682613747565b60006020828403121561379057600080fd5b5035919050565b6000806000606084860312156137ac57600080fd5b6137b584613747565b95602085013595506040909401359392505050565b602080825282518282018190526000919060409081850190868401855b8281101561384c5781518051855286810151878601528581015186860152606080820151908601526080808201519086015260a0808201519086015260c0808201519086015260e09081015115159085015261010090930192908501906001016137e7565b5091979650505050505050565b6000806040838503121561386c57600080fd5b50508035926020909101359150565b6020808252825182820181905260009190848201906040850190845b818110156138bc5783516001600160a01b031683529284019291840191600101613897565b50909695505050505050565b6000806000606084860312156138dd57600080fd5b505081359360208301359350604090920135919050565b8015158114612ec557600080fd5b60008060008060008060c0878903121561391b57600080fd5b863595506020870135945060408701359350606087013561393b816138f4565b9598949750929560808101359460a0909101359350915050565b6000806000806080858703121561396b57600080fd5b843593506020850135925060408501359150606085013561398b816138f4565b939692955090935050565b600080604083850312156139a957600080fd5b8235915060208301356139bb816138f4565b809150509250929050565b600080604083850312156139d957600080fd5b6139e283613747565b946020939093013593505050565b634e487b7160e01b600052604160045260246000fd5b634e487b7160e01b600052601160045260246000fd5b8181038181111561153957611539613a06565b8082018082111561153957611539613a06565b634e487b7160e01b600052603260045260246000fd5b600060018201613a6a57613a6a613a06565b5060010190565b634e487b7160e01b600052601260045260246000fd5b600082613a9657613a96613a71565b500490565b600181815b80851115613ad6578160001904821115613abc57613abc613a06565b80851615613ac957918102915b93841c9390800290613aa0565b509250929050565b600082613aed57506001611539565b81613afa57506000611539565b8160018114613b105760028114613b1a57613b36565b6001915050611539565b60ff841115613b2b57613b2b613a06565b50506001821b611539565b5060208310610133831016604e8410600b8410161715613b59575081810a611539565b613b638383613a9b565b8060001904821115613b7757613b77613a06565b029392505050565b60006110768383613ade565b808202811582820484141761153957611539613a06565b600082613bb157613bb1613a71565b500690565b600060208284031215613bc857600080fd5b5051919050565b600060208284031215613be157600080fd5b8151611076816138f4565b600081613bfb57613bfb613a06565b50600019019056fea26469706673582212200838e7cae6189c2104f0eeb9eb699979cd3a0a843c4d7b8a3d2d8f3154cbe33e64736f6c63430008140033",
  "linkReferences": {},
  "deployedLinkReferences": {}
}